{
  "abi": [
    {
      "inputs": [
        {
          "internalType": "address[]",
          "name": "tokens",
          "type": "address[]"
        }
      ],
      "name": "getTokenScores",
      "outputs": [
        {
          "internalType": "uint256[]",
          "name": "scores",
          "type": "uint256[]"
        }
      ],
      "stateMutability": "view",
      "type": "function"
    }
  ],
  "address": "0xdaafbE65784f93ea0747173a77abB4206f98443C",
  "args": [],
  "solcInputHash": "0x31dfbe4f617220ff7fc1435eec95600597559e61a5f2ad6128ea2256626c632c",
  "bytecode": "0x608060405234801561001057600080fd5b50610246806100206000396000f3fe608060405234801561001057600080fd5b506004361061002b5760003560e01c80631a86165314610030575b600080fd5b6100a06004803603602081101561004657600080fd5b81019060208101813564010000000081111561006157600080fd5b82018360208201111561007357600080fd5b8035906020019184602083028401116401000000008311171561009557600080fd5b5090925090506100f0565b60408051602080825283518183015283519192839290830191858101910280838360005b838110156100dc5781810151838201526020016100c4565b505050509050019250505060405180910390f35b60606005821461013f576040805162461bcd60e51b81526020600482015260156024820152744d7573742070726f76696465203520746f6b656e7360581b604482015290519081900360640190fd5b60408051600580825260c08201909252906020820160a080368337019050509050670de0b6b3a76400008160008151811061017657fe5b602002602001018181525050670de0b6b3a76400008160018151811061019857fe5b602002602001018181525050670de0b6b3a7640000816002815181106101ba57fe5b602002602001018181525050670de0b6b3a7640000816003815181106101dc57fe5b602002602001018181525050670de0b6b3a7640000816004815181106101fe57fe5b6020026020010181815250509291505056fea2646970667358221220307fa182c64f1f34857a8e07ed2c6ba05e43b5988618b8766f63bda8cc41593764736f6c634300060c0033",
  "devdoc": {
    "kind": "dev",
    "methods": {},
    "version": 1
  },
  "userdoc": {
    "kind": "user",
    "methods": {},
    "version": 1
  },
  "storageLayout": {
    "storage": [],
    "types": null
  },
  "gasEstimates": {
    "creation": {
      "codeDepositCost": "116400",
      "executionCost": "165",
      "totalCost": "116565"
    },
    "external": {
      "getTokenScores(address[])": "infinite"
    }
  }
}