{
  "abi": [
    {
      "inputs": [
        {
          "internalType": "contract IUniswapV2Router02",
          "name": "uniswapRouter",
          "type": "address"
        },
        {
          "internalType": "contract IIndexedUniswapV2Oracle",
          "name": "oracle_",
          "type": "address"
        }
      ],
      "stateMutability": "nonpayable",
      "type": "constructor"
    },
    {
      "anonymous": false,
      "inputs": [
        {
          "indexed": true,
          "internalType": "address",
          "name": "token",
          "type": "address"
        },
        {
          "indexed": false,
          "internalType": "uint256",
          "name": "amountReceived",
          "type": "uint256"
        }
      ],
      "name": "NewTokensToSell",
      "type": "event"
    },
    {
      "anonymous": false,
      "inputs": [
        {
          "indexed": false,
          "internalType": "uint8",
          "name": "premium",
          "type": "uint8"
        }
      ],
      "name": "PremiumPercentSet",
      "type": "event"
    },
    {
      "anonymous": false,
      "inputs": [
        {
          "indexed": true,
          "internalType": "address",
          "name": "tokenSold",
          "type": "address"
        },
        {
          "indexed": true,
          "internalType": "address",
          "name": "tokenBought",
          "type": "address"
        },
        {
          "indexed": false,
          "internalType": "uint256",
          "name": "soldAmount",
          "type": "uint256"
        },
        {
          "indexed": false,
          "internalType": "uint256",
          "name": "boughtAmount",
          "type": "uint256"
        }
      ],
      "name": "SwappedTokens",
      "type": "event"
    },
    {
      "inputs": [
        {
          "internalType": "address",
          "name": "tokenIn",
          "type": "address"
        },
        {
          "internalType": "address",
          "name": "tokenOut",
          "type": "address"
        },
        {
          "internalType": "uint256",
          "name": "amountOut",
          "type": "uint256"
        }
      ],
      "name": "calcInGivenOut",
      "outputs": [
        {
          "internalType": "uint256",
          "name": "amountIn",
          "type": "uint256"
        }
      ],
      "stateMutability": "view",
      "type": "function"
    },
    {
      "inputs": [
        {
          "internalType": "address",
          "name": "tokenIn",
          "type": "address"
        },
        {
          "internalType": "address",
          "name": "tokenOut",
          "type": "address"
        },
        {
          "internalType": "uint256",
          "name": "amountIn",
          "type": "uint256"
        }
      ],
      "name": "calcOutGivenIn",
      "outputs": [
        {
          "internalType": "uint256",
          "name": "amountOut",
          "type": "uint256"
        }
      ],
      "stateMutability": "view",
      "type": "function"
    },
    {
      "inputs": [],
      "name": "controller",
      "outputs": [
        {
          "internalType": "address",
          "name": "",
          "type": "address"
        }
      ],
      "stateMutability": "view",
      "type": "function"
    },
    {
      "inputs": [
        {
          "internalType": "address",
          "name": "tokenIn",
          "type": "address"
        },
        {
          "internalType": "address",
          "name": "tokenOut",
          "type": "address"
        },
        {
          "internalType": "uint256",
          "name": "amountIn",
          "type": "uint256"
        },
        {
          "internalType": "address[]",
          "name": "path",
          "type": "address[]"
        }
      ],
      "name": "executeSwapExactTokensForTokens",
      "outputs": [
        {
          "internalType": "uint256",
          "name": "premiumPaidToCaller",
          "type": "uint256"
        }
      ],
      "stateMutability": "nonpayable",
      "type": "function"
    },
    {
      "inputs": [
        {
          "internalType": "address",
          "name": "tokenIn",
          "type": "address"
        },
        {
          "internalType": "address",
          "name": "tokenOut",
          "type": "address"
        },
        {
          "internalType": "uint256",
          "name": "amountOut",
          "type": "uint256"
        },
        {
          "internalType": "address[]",
          "name": "path",
          "type": "address[]"
        }
      ],
      "name": "executeSwapTokensForExactTokens",
      "outputs": [
        {
          "internalType": "uint256",
          "name": "premiumPaidToCaller",
          "type": "uint256"
        }
      ],
      "stateMutability": "nonpayable",
      "type": "function"
    },
    {
      "inputs": [],
      "name": "getPremiumPercent",
      "outputs": [
        {
          "internalType": "uint8",
          "name": "",
          "type": "uint8"
        }
      ],
      "stateMutability": "view",
      "type": "function"
    },
    {
      "inputs": [
        {
          "internalType": "address",
          "name": "token",
          "type": "address"
        },
        {
          "internalType": "uint256",
          "name": "amount",
          "type": "uint256"
        }
      ],
      "name": "handleUnbindToken",
      "outputs": [],
      "stateMutability": "nonpayable",
      "type": "function"
    },
    {
      "inputs": [
        {
          "internalType": "address",
          "name": "controller_",
          "type": "address"
        },
        {
          "internalType": "address",
          "name": "pool",
          "type": "address"
        },
        {
          "internalType": "uint8",
          "name": "premiumPercent",
          "type": "uint8"
        }
      ],
      "name": "initialize",
      "outputs": [],
      "stateMutability": "nonpayable",
      "type": "function"
    },
    {
      "inputs": [],
      "name": "oracle",
      "outputs": [
        {
          "internalType": "contract IIndexedUniswapV2Oracle",
          "name": "",
          "type": "address"
        }
      ],
      "stateMutability": "view",
      "type": "function"
    },
    {
      "inputs": [
        {
          "internalType": "uint8",
          "name": "premiumPercent",
          "type": "uint8"
        }
      ],
      "name": "setPremiumPercent",
      "outputs": [],
      "stateMutability": "nonpayable",
      "type": "function"
    },
    {
      "inputs": [
        {
          "internalType": "address",
          "name": "tokenIn",
          "type": "address"
        },
        {
          "internalType": "address",
          "name": "tokenOut",
          "type": "address"
        },
        {
          "internalType": "uint256",
          "name": "amountIn",
          "type": "uint256"
        },
        {
          "internalType": "uint256",
          "name": "minAmountOut",
          "type": "uint256"
        }
      ],
      "name": "swapExactTokensForTokens",
      "outputs": [
        {
          "internalType": "uint256",
          "name": "amountOut",
          "type": "uint256"
        }
      ],
      "stateMutability": "nonpayable",
      "type": "function"
    },
    {
      "inputs": [
        {
          "internalType": "address",
          "name": "tokenIn",
          "type": "address"
        },
        {
          "internalType": "address",
          "name": "tokenOut",
          "type": "address"
        },
        {
          "internalType": "uint256",
          "name": "amountOut",
          "type": "uint256"
        },
        {
          "internalType": "uint256",
          "name": "maxAmountIn",
          "type": "uint256"
        }
      ],
      "name": "swapTokensForExactTokens",
      "outputs": [
        {
          "internalType": "uint256",
          "name": "amountIn",
          "type": "uint256"
        }
      ],
      "stateMutability": "nonpayable",
      "type": "function"
    }
  ],
  "address": "0x8d12A344580Bc0bC4E684248067F5d9d3908C864",
  "args": [
    "0xa5E0829CaCEd8fFDD4De3c43696c57F7D7A678ff",
    "0x95129751769f99CC39824a0793eF4933DD8Bb74B"
  ],
  "solcInputHash": "0x2b50103d5dbd4faf62f6b42e332b4c0f41f3363477ccda6d6f21fad40b0b6087",
  "bytecode": "0x60c06040523480156200001157600080fd5b5060405162001ff638038062001ff6833981016040819052620000349162000053565b6001600160601b0319606092831b8116608052911b1660a052620000aa565b6000806040838503121562000066578182fd5b8251620000738162000091565b6020840151909250620000868162000091565b809150509250929050565b6001600160a01b0381168114620000a757600080fd5b50565b60805160601c60a05160601c611f09620000ed600039806105825280611091525080610a265280610afb5280610bc45280610d265280610df85250611f096000f3fe608060405234801561001057600080fd5b50600436106100b45760003560e01c806389fe039b1161007157806389fe039b14610147578063b25ccf2c1461015a578063c1704af21461016d578063e11986d114610180578063f77c479114610193578063fdf520bb1461019b576100b4565b80633bc5ebe7146100b95780634f33937f146100e25780635ea27538146100f5578063633177101461010a5780637dc0d1d01461011f57806389232a0014610134575b600080fd5b6100cc6100c7366004611687565b6101ae565b6040516100d99190611d73565b60405180910390f35b6100cc6100f03660046115ab565b610307565b6100fd6104c1565b6040516100d99190611dfd565b61011d61011836600461194b565b6104d1565b005b610127610580565b6040516100d99190611983565b61011d6101423660046116ca565b6105a4565b6100cc610155366004611687565b61066c565b6100cc6101683660046115ab565b61079f565b61011d61017b366004611712565b610959565b6100cc61018e3660046115eb565b6109c8565b610127610cb9565b6100cc6101a93660046115eb565b610cc8565b600154600090600160a81b900460ff16156101e45760405162461bcd60e51b81526004016101db90611b7e565b60405180910390fd5b6001805460ff60a81b1916600160a81b179055610202858585610307565b9050818111156102245760405162461bcd60e51b81526004016101db90611b2a565b600154610240906001600160a01b038781169133911684610f7b565b600154604051631185197d60e31b81526001600160a01b0390911690638c28cbe890610270908890600401611983565b600060405180830381600087803b15801561028a57600080fd5b505af115801561029e573d6000803e3d6000fd5b506102b7925050506001600160a01b0385163385610fd9565b846001600160a01b0316846001600160a01b0316600080516020611eb483398151915285846040516102ea929190611d7c565b60405180910390a36001805460ff60a81b19169055949350505050565b6000836103126114a4565b6001546040516364c7d66160e01b81526001600160a01b03909116906364c7d66190610342908590600401611983565b60e06040518083038186803b15801561035a57600080fd5b505afa15801561036e573d6000803e3d6000fd5b505050506040513d601f19601f820116820180604052508101906103929190611892565b9050600081608001516001600160601b0316116103c15760405162461bcd60e51b81526004016101db90611afd565b6040516370a0823160e01b815284906001600160a01b038716906370a08231906103ef903090600401611983565b60206040518083038186803b15801561040757600080fd5b505afa15801561041b573d6000803e3d6000fd5b505050506040513d601f19601f8201168201806040525081019061043f9190611933565b101561045d5760405162461bcd60e51b81526004016101db90611ce6565b6104656114e0565b61046d6114e0565b6104778888610ffd565b90925090506000610488828861115c565b9050600061049e826001600160901b0316611193565b90506104aa84826111b5565b6001600160901b03169a9950505050505050505050565b600154600160a01b900460ff1690565b6000546001600160a01b031633146104fb5760405162461bcd60e51b81526004016101db90611a85565b60008160ff16118015610511575060148160ff16105b61052d5760405162461bcd60e51b81526004016101db90611ad8565b6001805460ff60a01b1916600160a01b60ff8416021790556040517fc53b2421172f8be019daf92988365a3072876f2747c0a3d4b28cd13fcc6f005e90610575908390611dfd565b60405180910390a150565b7f000000000000000000000000000000000000000000000000000000000000000081565b6001546001600160a01b0316156105cd5760405162461bcd60e51b81526004016101db90611b55565b6001600160a01b0382166105f35760405162461bcd60e51b81526004016101db90611c72565b60008160ff16118015610609575060148160ff16105b6106255760405162461bcd60e51b81526004016101db90611ad8565b600180546001600160a01b039384166001600160a01b031960ff909416600160a01b0260ff60a01b1990921691909117831617905560008054939092169216919091179055565b600154600090600160a81b900460ff16156106995760405162461bcd60e51b81526004016101db90611b7e565b6001805460ff60a81b1916600160a81b1790556106b785858561079f565b9050818110156106d95760405162461bcd60e51b81526004016101db90611bcc565b6001546106f5906001600160a01b038781169133911686610f7b565b600154604051631185197d60e31b81526001600160a01b0390911690638c28cbe890610725908890600401611983565b600060405180830381600087803b15801561073f57600080fd5b505af1158015610753573d6000803e3d6000fd5b5061076c925050506001600160a01b0385163383610fd9565b846001600160a01b0316846001600160a01b0316600080516020611eb483398151915283866040516102ea929190611d7c565b6000836107aa6114a4565b6001546040516364c7d66160e01b81526001600160a01b03909116906364c7d661906107da908590600401611983565b60e06040518083038186803b1580156107f257600080fd5b505afa158015610806573d6000803e3d6000fd5b505050506040513d601f19601f8201168201806040525081019061082a9190611892565b9050600081608001516001600160601b0316116108595760405162461bcd60e51b81526004016101db90611afd565b6108616114e0565b6108696114e0565b6108738888610ffd565b90925090506000610884838861115c565b9050600061089a826001600160901b03166111e8565b90506108a683826111b5565b6001600160901b0316965086896001600160a01b03166370a08231306040518263ffffffff1660e01b81526004016108de9190611983565b60206040518083038186803b1580156108f657600080fd5b505afa15801561090a573d6000803e3d6000fd5b505050506040513d601f19601f8201168201806040525081019061092e9190611933565b101561094c5760405162461bcd60e51b81526004016101db90611ce6565b5050505050509392505050565b6001546001600160a01b031633146109835760405162461bcd60e51b81526004016101db90611ab1565b816001600160a01b03167ff93f11706ef5199cb4b091ba127aefd4e260584c810114c438e1ac3ecddecd52826040516109bc9190611d73565b60405180910390a25050565b600154600090600160a81b900460ff16156109f55760405162461bcd60e51b81526004016101db90611b7e565b6001805460ff60a81b1916600160a81b1790556000610a1586888761079f565b9050610a4b6001600160a01b0388167f00000000000000000000000000000000000000000000000000000000000000008361120b565b866001600160a01b031684846000818110610a6257fe5b9050602002016020810190610a779190611590565b6001600160a01b0316148015610ac257506001600160a01b03861684846000198101818110610aa257fe5b9050602002016020810190610ab79190611590565b6001600160a01b0316145b610ade5760405162461bcd60e51b81526004016101db90611ba3565b600154604051634401edf760e11b81526060916001600160a01b037f0000000000000000000000000000000000000000000000000000000000000000811692638803dbee92610b3c928b9288928c928c929116904290600401611d8a565b600060405180830381600087803b158015610b5657600080fd5b505af1158015610b6a573d6000803e3d6000fd5b505050506040513d6000823e601f3d908101601f19168201604052610b9291908101906117df565b9050600081600081518110610ba357fe5b6020026020010151905082811015610c0357610bea6001600160a01b038a167f0000000000000000000000000000000000000000000000000000000000000000600061120b565b8083039350610c036001600160a01b038a163386610fd9565b600154604051631185197d60e31b81526001600160a01b0390911690638c28cbe890610c33908b90600401611983565b600060405180830381600087803b158015610c4d57600080fd5b505af1158015610c61573d6000803e3d6000fd5b50505050876001600160a01b0316896001600160a01b0316600080516020611eb4833981519152838a604051610c98929190611d7c565b60405180910390a350506001805460ff60a81b191690555095945050505050565b6000546001600160a01b031681565b600154600090600160a81b900460ff1615610cf55760405162461bcd60e51b81526004016101db90611b7e565b6001805460ff60a81b1916600160a81b1790556000610d15868887610307565b9050610d4b6001600160a01b0388167f00000000000000000000000000000000000000000000000000000000000000008761120b565b866001600160a01b031684846000818110610d6257fe5b9050602002016020810190610d779190611590565b6001600160a01b0316148015610dc257506001600160a01b03861684846000198101818110610da257fe5b9050602002016020810190610db79190611590565b6001600160a01b0316145b610dde5760405162461bcd60e51b81526004016101db90611ba3565b6040516338ed173960e01b81526060906001600160a01b037f000000000000000000000000000000000000000000000000000000000000000016906338ed173990610e3790899086908a908a9030904290600401611d8a565b600060405180830381600087803b158015610e5157600080fd5b505af1158015610e65573d6000803e3d6000fd5b505050506040513d6000823e601f3d908101601f19168201604052610e8d91908101906117df565b9050600081600183510381518110610ea157fe5b6020026020010151905082811115610ecc578281039350610ecc6001600160a01b0389163386610fd9565b600154610ee6906001600160a01b038a8116911685610fd9565b600154604051631185197d60e31b81526001600160a01b0390911690638c28cbe890610f16908b90600401611983565b600060405180830381600087803b158015610f3057600080fd5b505af1158015610f44573d6000803e3d6000fd5b50505050876001600160a01b0316896001600160a01b0316600080516020611eb48339815191528984604051610c98929190611d7c565b610fd3846323b872dd60e01b858585604051602401610f9c939291906119b1565b60408051601f198184030181529190526020810180516001600160e01b03166001600160e01b0319909316929092179091526112ce565b50505050565b610ff88363a9059cbb60e01b8484604051602401610f9c9291906119d5565b505050565b6110056114e0565b61100d6114e0565b6040805160028082526060808301845292602083019080368337019050509050848160008151811061103b57fe5b60200260200101906001600160a01b031690816001600160a01b031681525050838160018151811061106957fe5b6001600160a01b03928316602091820292909201015260405163768d2c1960e01b81526060917f0000000000000000000000000000000000000000000000000000000000000000169063768d2c19906110cf9085906104b0906202a300906004016119ee565b60006040518083038186803b1580156110e757600080fd5b505afa1580156110fb573d6000803e3d6000fd5b505050506040513d6000823e601f3d908101601f19168201604052611123919081019061173c565b90508060008151811061113257fe5b602002602001015193508060018151811061114957fe5b6020026020010151925050509250929050565b604080516020810190915282516001600160e01b0316815260009061118a90611185908461135d565b6113bc565b90505b92915050565b60015460009060649060ff600160a01b909104811682031683025b0492915050565b600061118a61118583604051806020016040528087602001516001600160e01b031681525061135d90919063ffffffff16565b6000600160149054906101000a900460ff1660640360ff1682606402816111ae57fe5b8015806112935750604051636eb1769f60e11b81526001600160a01b0384169063dd62ed3e906112419030908690600401611997565b60206040518083038186803b15801561125957600080fd5b505afa15801561126d573d6000803e3d6000fd5b505050506040513d601f19601f820116820180604052508101906112919190611933565b155b6112af5760405162461bcd60e51b81526004016101db90611d1d565b610ff88363095ea7b360e01b8484604051602401610f9c9291906119d5565b6060611323826040518060400160405280602081526020017f5361666545524332303a206c6f772d6c6576656c2063616c6c206661696c6564815250856001600160a01b03166113c39092919063ffffffff16565b805190915015610ff85780806020019051810190611341919061186f565b610ff85760405162461bcd60e51b81526004016101db90611c9c565b6113656114f7565b600082158061138b57505082516001600160e01b03168281029083828161138857fe5b04145b6113a75760405162461bcd60e51b81526004016101db90611bf8565b60408051602081019091529081529392505050565b5160701c90565b60606113d284846000856113da565b949350505050565b60606113e58561149e565b6114015760405162461bcd60e51b81526004016101db90611c3b565b60006060866001600160a01b0316858760405161141e9190611967565b60006040518083038185875af1925050503d806000811461145b576040519150601f19603f3d011682016040523d82523d6000602084013e611460565b606091505b509150915081156114745791506113d29050565b8051156114845780518082602001fd5b8360405162461bcd60e51b81526004016101db9190611a52565b3b151590565b6040805160e081018252600080825260208201819052918101829052606081018290526080810182905260a0810182905260c081019190915290565b604080518082019091526000808252602082015290565b6040518060200160405280600081525090565b80356001600160a01b038116811461118d57600080fd5b600060408284031215611532578081fd5b61153c6040611e0b565b90506115488383611562565b81526115578360208401611562565b602082015292915050565b80516001600160e01b038116811461118d57600080fd5b80516001600160601b038116811461118d57600080fd5b6000602082840312156115a1578081fd5b61118a838361150a565b6000806000606084860312156115bf578182fd5b83356115ca81611e7e565b925060208401356115da81611e7e565b929592945050506040919091013590565b600080600080600060808688031215611602578081fd5b853561160d81611e7e565b9450602086013561161d81611e7e565b935060408601359250606086013567ffffffffffffffff80821115611640578283fd5b818801915088601f830112611653578283fd5b813581811115611661578384fd5b8960208083028501011115611674578384fd5b9699959850939650602001949392505050565b6000806000806080858703121561169c578384fd5b6116a6868661150a565b93506116b5866020870161150a565b93969395505050506040820135916060013590565b6000806000606084860312156116de578283fd5b6116e8858561150a565b92506116f7856020860161150a565b9150604084013561170781611ea4565b809150509250925092565b60008060408385031215611724578182fd5b61172e848461150a565b946020939093013593505050565b6000602080838503121561174e578182fd5b825167ffffffffffffffff811115611764578283fd5b8301601f81018513611774578283fd5b805161178761178282611e32565b611e0b565b818152838101908385016040808502860187018a10156117a5578788fd5b8795505b848610156117d1576117bb8a83611521565b84526001959095019492860192908101906117a9565b509098975050505050505050565b600060208083850312156117f1578182fd5b825167ffffffffffffffff811115611807578283fd5b8301601f81018513611817578283fd5b805161182561178282611e32565b8181528381019083850185840285018601891015611841578687fd5b8694505b83851015611863578051835260019490940193918501918501611845565b50979650505050505050565b600060208284031215611880578081fd5b815161188b81611e96565b9392505050565b600060e082840312156118a3578081fd5b6118ad60e0611e0b565b82516118b881611e96565b815260208301516118c881611e96565b6020820152604083015164ffffffffff811681146118e4578283fd5b60408201526118f68460608501611579565b60608201526119088460808501611579565b608082015260a083015161191b81611ea4565b60a082015260c0928301519281019290925250919050565b600060208284031215611944578081fd5b5051919050565b60006020828403121561195c578081fd5b813561188b81611ea4565b60008251611979818460208701611e52565b9190910192915050565b6001600160a01b0391909116815260200190565b6001600160a01b0392831681529116602082015260400190565b6001600160a01b039384168152919092166020820152604081019190915260600190565b6001600160a01b03929092168252602082015260400190565b606080825284519082018190526000906020906080840190828801845b82811015611a305781516001600160a01b031684529284019290840190600101611a0b565b50505063ffffffff958616918401919091529290931660409091015292915050565b6000602082528251806020840152611a71816040850160208701611e52565b601f01601f19169190910160400192915050565b60208082526012908201527122a9292fa727aa2fa1a7a72a2927a62622a960711b604082015260600190565b6020808252600d908201526c11549497d3d3931657d413d3d3609a1b604082015260600190565b6020808252600b908201526a4552525f5052454d49554d60a81b604082015260600190565b60208082526013908201527222a9292faaa72222a9a4a922a22faa27a5a2a760691b604082015260600190565b60208082526011908201527022a9292fa6a0ac2fa0a6a7aaa72a2fa4a760791b604082015260600190565b6020808252600f908201526e11549497d253925512505312569151608a1b604082015260600190565b6020808252600b908201526a4552525f5245454e54525960a81b604082015260600190565b6020808252600f908201526e4552525f504154485f544f4b454e5360881b604082015260600190565b60208082526012908201527111549497d3525397d05353d5539517d3d55560721b604082015260600190565b60208082526023908201527f4669786564506f696e743a204d554c5449504c49434154494f4e5f4f564552466040820152624c4f5760e81b606082015260800190565b6020808252601d908201527f416464726573733a2063616c6c20746f206e6f6e2d636f6e7472616374000000604082015260600190565b60208082526010908201526f4552525f4e554c4c5f4144445245535360801b604082015260600190565b6020808252602a908201527f5361666545524332303a204552433230206f7065726174696f6e20646964206e6040820152691bdd081cdd58d8d9595960b21b606082015260800190565b60208082526018908201527f4552525f494e53554646494349454e545f42414c414e43450000000000000000604082015260600190565b60208082526036908201527f5361666545524332303a20617070726f76652066726f6d206e6f6e2d7a65726f60408201527520746f206e6f6e2d7a65726f20616c6c6f77616e636560501b606082015260800190565b90815260200190565b918252602082015260400190565b868152602080820187905260a0604083018190528201859052600090869060c08401835b88811015611ddc578383016001600160a01b03611dcb828761150a565b168352935090820190600101611dae565b506001600160a01b0396909616606085015250505060800152949350505050565b60ff91909116815260200190565b60405181810167ffffffffffffffff81118282101715611e2a57600080fd5b604052919050565b600067ffffffffffffffff821115611e48578081fd5b5060209081020190565b60005b83811015611e6d578181015183820152602001611e55565b83811115610fd35750506000910152565b6001600160a01b0381168114611e9357600080fd5b50565b8015158114611e9357600080fd5b60ff81168114611e9357600080fdfe43a6165165685ef04ce68fd0b620a88554df7464167d1fd61ff8b3802a4146f5a26469706673582212200b6871363346b722b8f668c18c082cede3ddc85abe6c7eed79e9a4f7fd986a4f64736f6c634300060c0033",
  "devdoc": {
    "author": "d1ll0n",
    "details": "Contract for swapping undesired tokens to desired tokens for an index pool. This contract is deployed as a proxy for each index pool. When tokens are unbound from a pool, they are transferred to this contract and sold on UniSwap or to anyone who calls the contract in exchange for any token which is currently bound to its index pool and which has a desired weight about zero. It uses a short-term uniswap price oracle to price swaps and has a configurable premium rate which is used to decrease the expected output from a swap and to reward callers for triggering a sale. The contract does not track the tokens it has received in order to reduce gas spent by the pool contract. Tokens must be tracked via events, meaning this is not well suited for trades with other smart contracts.",
    "events": {
      "SwappedTokens(address,address,uint256,uint256)": {
        "params": {
          "boughtAmount": "Amount of `tokenBought` sent to pool",
          "soldAmount": "Amount of `tokenSold` paid to caller",
          "tokenBought": "Token received from caller and sent to pool",
          "tokenSold": "Token sent to caller"
        }
      }
    },
    "kind": "dev",
    "methods": {
      "calcInGivenOut(address,address,uint256)": {
        "details": "Calculate the amount of `tokenIn` the pool will accept for `amountOut` of `tokenOut`."
      },
      "calcOutGivenIn(address,address,uint256)": {
        "details": "Calculate the amount of `tokenOut` the pool will give for `amountIn` of `tokenIn`."
      },
      "executeSwapExactTokensForTokens(address,address,uint256,address[])": {
        "details": "Executes a trade with UniSwap to sell some tokens held by the contract for some tokens desired by the pool and pays the caller any tokens received above the minimum acceptable output.",
        "params": {
          "amountIn": "Exact amount of `tokenIn` to give UniSwap",
          "path": "Swap path to execute",
          "tokenIn": "Token to sell to UniSwap",
          "tokenOut": "Token to receive from UniSwap"
        }
      },
      "executeSwapTokensForExactTokens(address,address,uint256,address[])": {
        "details": "Execute a trade with UniSwap to sell some tokens held by the contract for some tokens desired by the pool and pays the caller the difference between the maximum input value and the actual paid amount.",
        "params": {
          "amountOut": "Exact amount of `tokenOut` to receive from UniSwap",
          "path": "Swap path to execute",
          "tokenIn": "Token to sell to UniSwap",
          "tokenOut": "Token to receive from UniSwapx"
        }
      },
      "handleUnbindToken(address,uint256)": {
        "details": "Receive `amount` of `token` from the pool."
      },
      "initialize(address,address,uint8)": {
        "details": "Initialize the proxy contract with the acceptable premium rate and the address of the pool it is for."
      },
      "setPremiumPercent(uint8)": {
        "details": "Set the premium rate as a percent."
      },
      "swapExactTokensForTokens(address,address,uint256,uint256)": {
        "details": "Swap exactly `amountIn` of `tokenIn` for at least `minAmountOut` of `tokenOut`.",
        "params": {
          "amountIn": "Amount of `tokenIn` to sell to pool",
          "minAmountOut": "Minimum amount of `tokenOut` to buy from pool",
          "tokenIn": "Token to sell to pool",
          "tokenOut": "Token to buy from pool"
        }
      },
      "swapTokensForExactTokens(address,address,uint256,uint256)": {
        "details": "Swap up to `maxAmountIn` of `tokenIn` for exactly `amountOut` of `tokenOut`.",
        "params": {
          "amountOut": "Amount of `tokenOut` to buy from pool",
          "maxAmountIn": "Maximum amount of `tokenIn` to sell to pool",
          "tokenIn": "Token to sell to pool",
          "tokenOut": "Token to buy from pool"
        }
      }
    },
    "title": "SigmaUnboundTokenSellerV1",
    "version": 1
  },
  "userdoc": {
    "kind": "user",
    "methods": {},
    "version": 1
  },
  "storageLayout": {
    "storage": [
      {
        "astId": 2575,
        "contract": "temp-contracts/SigmaUnboundTokenSellerV1.sol:SigmaUnboundTokenSellerV1",
        "label": "controller",
        "offset": 0,
        "slot": "0",
        "type": "t_address"
      },
      {
        "astId": 2577,
        "contract": "temp-contracts/SigmaUnboundTokenSellerV1.sol:SigmaUnboundTokenSellerV1",
        "label": "_pool",
        "offset": 0,
        "slot": "1",
        "type": "t_contract(IIndexPool)3776"
      },
      {
        "astId": 2579,
        "contract": "temp-contracts/SigmaUnboundTokenSellerV1.sol:SigmaUnboundTokenSellerV1",
        "label": "_premiumPercent",
        "offset": 20,
        "slot": "1",
        "type": "t_uint8"
      },
      {
        "astId": 2581,
        "contract": "temp-contracts/SigmaUnboundTokenSellerV1.sol:SigmaUnboundTokenSellerV1",
        "label": "_mutex",
        "offset": 21,
        "slot": "1",
        "type": "t_bool"
      }
    ],
    "types": {
      "t_address": {
        "encoding": "inplace",
        "label": "address",
        "numberOfBytes": "20"
      },
      "t_bool": {
        "encoding": "inplace",
        "label": "bool",
        "numberOfBytes": "1"
      },
      "t_contract(IIndexPool)3776": {
        "encoding": "inplace",
        "label": "contract IIndexPool",
        "numberOfBytes": "20"
      },
      "t_uint8": {
        "encoding": "inplace",
        "label": "uint8",
        "numberOfBytes": "1"
      }
    }
  },
  "gasEstimates": {
    "creation": {
      "codeDepositCost": "1589000",
      "executionCost": "infinite",
      "totalCost": "infinite"
    },
    "external": {
      "calcInGivenOut(address,address,uint256)": "infinite",
      "calcOutGivenIn(address,address,uint256)": "infinite",
      "controller()": "1158",
      "executeSwapExactTokensForTokens(address,address,uint256,address[])": "infinite",
      "executeSwapTokensForExactTokens(address,address,uint256,address[])": "infinite",
      "getPremiumPercent()": "1108",
      "handleUnbindToken(address,uint256)": "2702",
      "initialize(address,address,uint8)": "infinite",
      "oracle()": "infinite",
      "setPremiumPercent(uint8)": "23214",
      "swapExactTokensForTokens(address,address,uint256,uint256)": "infinite",
      "swapTokensForExactTokens(address,address,uint256,uint256)": "infinite"
    },
    "internal": {
      "_getAveragePrices(address,address)": "infinite",
      "_maximumPaidValue(uint256)": "956",
      "_minimumReceivedValue(uint256)": "886"
    }
  }
}