{
  "abi": [
    {
      "inputs": [
        {
          "internalType": "address",
          "name": "committee_",
          "type": "address"
        }
      ],
      "stateMutability": "nonpayable",
      "type": "constructor"
    },
    {
      "anonymous": false,
      "inputs": [
        {
          "indexed": true,
          "internalType": "address",
          "name": "previousCommittee",
          "type": "address"
        },
        {
          "indexed": true,
          "internalType": "address",
          "name": "newCommittee",
          "type": "address"
        }
      ],
      "name": "CommitteeChanged",
      "type": "event"
    },
    {
      "anonymous": false,
      "inputs": [
        {
          "indexed": true,
          "internalType": "address",
          "name": "target",
          "type": "address"
        },
        {
          "indexed": false,
          "internalType": "uint256",
          "name": "value",
          "type": "uint256"
        },
        {
          "indexed": false,
          "internalType": "string",
          "name": "signature",
          "type": "string"
        },
        {
          "indexed": false,
          "internalType": "bytes",
          "name": "data",
          "type": "bytes"
        }
      ],
      "name": "ExecuteTransaction",
      "type": "event"
    },
    {
      "anonymous": false,
      "inputs": [
        {
          "indexed": true,
          "internalType": "address",
          "name": "previousOwner",
          "type": "address"
        },
        {
          "indexed": true,
          "internalType": "address",
          "name": "newOwner",
          "type": "address"
        }
      ],
      "name": "OwnershipTransferred",
      "type": "event"
    },
    {
      "inputs": [],
      "name": "committee",
      "outputs": [
        {
          "internalType": "address",
          "name": "",
          "type": "address"
        }
      ],
      "stateMutability": "view",
      "type": "function"
    },
    {
      "inputs": [
        {
          "internalType": "address",
          "name": "target",
          "type": "address"
        },
        {
          "internalType": "uint256",
          "name": "value",
          "type": "uint256"
        },
        {
          "internalType": "string",
          "name": "signature",
          "type": "string"
        },
        {
          "internalType": "bytes",
          "name": "data",
          "type": "bytes"
        }
      ],
      "name": "executeTransaction",
      "outputs": [
        {
          "internalType": "bytes",
          "name": "",
          "type": "bytes"
        }
      ],
      "stateMutability": "payable",
      "type": "function"
    },
    {
      "inputs": [],
      "name": "owner",
      "outputs": [
        {
          "internalType": "address",
          "name": "",
          "type": "address"
        }
      ],
      "stateMutability": "view",
      "type": "function"
    },
    {
      "inputs": [],
      "name": "renounceOwnership",
      "outputs": [],
      "stateMutability": "nonpayable",
      "type": "function"
    },
    {
      "inputs": [
        {
          "internalType": "address",
          "name": "committee_",
          "type": "address"
        }
      ],
      "name": "setCommittee",
      "outputs": [],
      "stateMutability": "nonpayable",
      "type": "function"
    },
    {
      "inputs": [
        {
          "internalType": "address",
          "name": "newOwner",
          "type": "address"
        }
      ],
      "name": "transferOwnership",
      "outputs": [],
      "stateMutability": "nonpayable",
      "type": "function"
    }
  ],
  "address": "0xE1b5a36c5bA631893891A2804a27F4d57D96Da4D",
  "args": [
    "0xBb22A47842EaFc967213269280509A8B28e57076"
  ],
  "solcInputHash": "0x17b1acbc160b3fc0b03ac3f4f501168252fc23098d4d63b7ededaaaaa3893b41",
  "bytecode": "0x608060405234801561001057600080fd5b506040516109423803806109428339818101604052602081101561003357600080fd5b5051600061003f6100d8565b600080546001600160a01b0319166001600160a01b0383169081178255604051929350917f8be0079c531659141344cd1fd0a4f28419497f9722a3daafe3b4186f6b6457e0908290a350600180546001600160a01b0319166001600160a01b0383169081179091556040516000907f8a346c92dccbe1cc8e7e219a44a23969c75f63ca7f008b959f9c82e4671fabca908290a3506100dc565b3390565b610857806100eb6000396000f3fe6080604052600436106100555760003560e01c80632224fa251461005a578063715018a6146101a65780638da5cb5b146101bd578063bddae40e146101ee578063d864e74014610221578063f2fde38b14610236575b600080fd5b6101316004803603608081101561007057600080fd5b6001600160a01b03823516916020810135918101906060810160408201356401000000008111156100a057600080fd5b8201836020820111156100b257600080fd5b803590602001918460018302840111640100000000831117156100d457600080fd5b9193909290916020810190356401000000008111156100f257600080fd5b82018360208201111561010457600080fd5b8035906020019184600183028401116401000000008311171561012657600080fd5b509092509050610269565b6040805160208082528351818301528351919283929083019185019080838360005b8381101561016b578181015183820152602001610153565b50505050905090810190601f1680156101985780820380516001836020036101000a031916815260200191505b509250505060405180910390f35b3480156101b257600080fd5b506101bb6104e8565b005b3480156101c957600080fd5b506101d261059c565b604080516001600160a01b039092168252519081900360200190f35b3480156101fa57600080fd5b506101bb6004803603602081101561021157600080fd5b50356001600160a01b03166105ab565b34801561022d57600080fd5b506101d2610671565b34801561024257600080fd5b506101bb6004803603602081101561025957600080fd5b50356001600160a01b0316610680565b6001546060906001600160a01b031633146102b55760405162461bcd60e51b815260040180806020018281038252602b8152602001806107b5602b913960400191505060405180910390fd5b6060846102fb5783838080601f01602080910402602001604051908101604052809392919081815260200183838082843760009201919091525092935061035692505050565b858560405180838380828437604051920182900382206001600160e01b031981166020840190815290955089945088935091602401905083838082843780830192505050935050505060405160208183030381529060405290505b60006060896001600160a01b031689846040518082805190602001908083835b602083106103955780518252601f199092019160209182019101610376565b6001836020036101000a03801982511681845116808217855250505050505090500191505060006040518083038185875af1925050503d80600081146103f7576040519150601f19603f3d011682016040523d82523d6000602084013e6103fc565b606091505b50915091508161043d5760405162461bcd60e51b81526004018080602001828103825260428152602001806107e06042913960600191505060405180910390fd5b896001600160a01b03167f88405ca50016c636e025868e263efe5a9f63bf11cc45404f7616394c7dc389d08a8a8a8a8a6040518086815260200180602001806020018381038352878782818152602001925080828437600083820152601f01601f191690910184810383528581526020019050858580828437600083820152604051601f909101601f1916909201829003995090975050505050505050a29998505050505050505050565b6104f061078a565b6000546001600160a01b03908116911614610552576040805162461bcd60e51b815260206004820181905260248201527f4f776e61626c653a2063616c6c6572206973206e6f7420746865206f776e6572604482015290519081900360640190fd5b600080546040516001600160a01b03909116907f8be0079c531659141344cd1fd0a4f28419497f9722a3daafe3b4186f6b6457e0908390a3600080546001600160a01b0319169055565b6000546001600160a01b031690565b6105b361078a565b6000546001600160a01b03908116911614610615576040805162461bcd60e51b815260206004820181905260248201527f4f776e61626c653a2063616c6c6572206973206e6f7420746865206f776e6572604482015290519081900360640190fd5b6001546040516001600160a01b038084169216907f8a346c92dccbe1cc8e7e219a44a23969c75f63ca7f008b959f9c82e4671fabca90600090a3600180546001600160a01b0319166001600160a01b0392909216919091179055565b6001546001600160a01b031681565b61068861078a565b6000546001600160a01b039081169116146106ea576040805162461bcd60e51b815260206004820181905260248201527f4f776e61626c653a2063616c6c6572206973206e6f7420746865206f776e6572604482015290519081900360640190fd5b6001600160a01b03811661072f5760405162461bcd60e51b815260040180806020018281038252602681526020018061078f6026913960400191505060405180910390fd5b600080546040516001600160a01b03808516939216917f8be0079c531659141344cd1fd0a4f28419497f9722a3daafe3b4186f6b6457e091a3600080546001600160a01b0319166001600160a01b0392909216919091179055565b339056fe4f776e61626c653a206e6577206f776e657220697320746865207a65726f2061646472657373436f6d6d697474656550726f78793a2063616c6c6572206973206e6f742074686520636f6d6d6974746565436f6d6d697474656550726f78793a3a657865637574655472616e73616374696f6e3a205472616e73616374696f6e20657865637574696f6e207265766572746564a2646970667358221220047d0bdcdb0ffa990cd2a35d8f6d07a3add6312af245c94b6ec745dea49d8ac064736f6c634300060c0033",
  "devdoc": {
    "kind": "dev",
    "methods": {
      "owner()": {
        "details": "Returns the address of the current owner."
      },
      "renounceOwnership()": {
        "details": "Leaves the contract without owner. It will not be possible to call `onlyOwner` functions anymore. Can only be called by the current owner. NOTE: Renouncing ownership will leave the contract without an owner, thereby removing any functionality that is only available to the owner."
      },
      "transferOwnership(address)": {
        "details": "Transfers ownership of the contract to a new account (`newOwner`). Can only be called by the current owner."
      }
    },
    "version": 1
  },
  "userdoc": {
    "kind": "user",
    "methods": {},
    "version": 1
  },
  "storageLayout": {
    "storage": [
      {
        "astId": 30,
        "contract": "temp-contracts/committee/CommitteeProxy.sol:CommitteeProxy",
        "label": "_owner",
        "offset": 0,
        "slot": "0",
        "type": "t_address"
      },
      {
        "astId": 154,
        "contract": "temp-contracts/committee/CommitteeProxy.sol:CommitteeProxy",
        "label": "committee",
        "offset": 0,
        "slot": "1",
        "type": "t_address"
      }
    ],
    "types": {
      "t_address": {
        "encoding": "inplace",
        "label": "address",
        "numberOfBytes": "20"
      }
    }
  },
  "gasEstimates": {
    "creation": {
      "codeDepositCost": "427000",
      "executionCost": "infinite",
      "totalCost": "infinite"
    },
    "external": {
      "committee()": "1103",
      "executeTransaction(address,uint256,string,bytes)": "infinite",
      "owner()": "1059",
      "renounceOwnership()": "24204",
      "setCommittee(address)": "24350",
      "transferOwnership(address)": "infinite"
    }
  }
}